{
  "contractName": "Lockdrop",
  "abi": [
    {
      "constant": true,
      "inputs": [],
      "name": "LOCK_START_TIME",
      "outputs": [
        {
          "name": "",
          "type": "uint256"
        }
      ],
      "payable": false,
      "stateMutability": "view",
      "type": "function",
      "signature": "0x15f2e2f7"
    },
    {
      "constant": true,
      "inputs": [],
      "name": "LOCK_DROP_FIRST_MONTH",
      "outputs": [
        {
          "name": "",
          "type": "uint256"
        }
      ],
      "payable": false,
      "stateMutability": "view",
      "type": "function",
      "signature": "0x2fecf7b4"
    },
    {
      "constant": true,
      "inputs": [],
      "name": "LOCK_END_TIME",
      "outputs": [
        {
          "name": "",
          "type": "uint256"
        }
      ],
      "payable": false,
      "stateMutability": "view",
      "type": "function",
      "signature": "0x39621466"
    },
    {
      "constant": true,
      "inputs": [],
      "name": "LOCK_DROP_SECOND_MONTH",
      "outputs": [
        {
          "name": "",
          "type": "uint256"
        }
      ],
      "payable": false,
      "stateMutability": "view",
      "type": "function",
      "signature": "0x6ddec51f"
    },
    {
      "constant": true,
      "inputs": [],
      "name": "LOCK_DROP_PERIOD",
      "outputs": [
        {
          "name": "",
          "type": "uint256"
        }
      ],
      "payable": false,
      "stateMutability": "view",
      "type": "function",
      "signature": "0x8cf0cb55"
    },
    {
      "inputs": [
        {
          "name": "startTime",
          "type": "uint256"
        }
      ],
      "payable": false,
      "stateMutability": "nonpayable",
      "type": "constructor",
      "signature": "constructor"
    },
    {
      "anonymous": false,
      "inputs": [
        {
          "indexed": true,
          "name": "owner",
          "type": "address"
        },
        {
          "indexed": false,
          "name": "eth",
          "type": "uint256"
        },
        {
          "indexed": false,
          "name": "lockAddr",
          "type": "address"
        },
        {
          "indexed": false,
          "name": "term",
          "type": "uint8"
        },
        {
          "indexed": false,
          "name": "edgewareKey",
          "type": "bytes"
        },
        {
          "indexed": false,
          "name": "isValidator",
          "type": "bool"
        },
        {
          "indexed": false,
          "name": "time",
          "type": "uint256"
        }
      ],
      "name": "Locked",
      "type": "event",
      "signature": "0x8f81b4492eef21096ee0e1bc48a7200f9db32806ea6730354516e05e98561399"
    },
    {
      "anonymous": false,
      "inputs": [
        {
          "indexed": true,
          "name": "contractAddr",
          "type": "address"
        },
        {
          "indexed": false,
          "name": "edgewareKey",
          "type": "bytes"
        },
        {
          "indexed": false,
          "name": "time",
          "type": "uint256"
        }
      ],
      "name": "Signaled",
      "type": "event",
      "signature": "0x0211c2ecb6e4a6502e0a459e097b88a8a9e09e651e50930a9a791cc031543b15"
    },
    {
      "constant": false,
      "inputs": [
        {
          "name": "term",
          "type": "uint8"
        },
        {
          "name": "edgewareKey",
          "type": "bytes"
        },
        {
          "name": "isValidator",
          "type": "bool"
        }
      ],
      "name": "lock",
      "outputs": [],
      "payable": true,
      "stateMutability": "payable",
      "type": "function",
      "signature": "0xa40d3060"
    },
    {
      "constant": false,
      "inputs": [
        {
          "name": "contractAddr",
          "type": "address"
        },
        {
          "name": "nonce",
          "type": "uint32"
        },
        {
          "name": "edgewareKey",
          "type": "bytes"
        }
      ],
      "name": "signal",
      "outputs": [],
      "payable": false,
      "stateMutability": "nonpayable",
      "type": "function",
      "signature": "0x911fab44"
    },
    {
      "constant": true,
      "inputs": [
        {
          "name": "_origin",
          "type": "address"
        },
        {
          "name": "_nonce",
          "type": "uint32"
        }
      ],
      "name": "addressFrom",
      "outputs": [
        {
          "name": "",
          "type": "address"
        }
      ],
      "payable": false,
      "stateMutability": "pure",
      "type": "function",
      "signature": "0x8f183183"
    }
  ],
  "bytecode": "0x608060405234801561001057600080fd5b506040516020806113f78339810180604052602081101561003057600080fd5b810190808051906020019092919050505080600081905550603c810160018190555050611395806100626000396000f3fe60806040526004361061008e576000357c0100000000000000000000000000000000000000000000000000000000900463ffffffff16806315f2e2f7146100935780632fecf7b4146100be57806339621466146100e95780636ddec51f146101145780638cf0cb551461013f5780638f1831831461016a578063911fab441461020b578063a40d3060146102c1575b600080fd5b34801561009f57600080fd5b506100a8610353565b6040518082815260200191505060405180910390f35b3480156100ca57600080fd5b506100d3610359565b6040518082815260200191505060405180910390f35b3480156100f557600080fd5b506100fe610360565b6040518082815260200191505060405180910390f35b34801561012057600080fd5b50610129610366565b6040518082815260200191505060405180910390f35b34801561014b57600080fd5b5061015461036d565b6040518082815260200191505060405180910390f35b34801561017657600080fd5b506101c96004803603604081101561018d57600080fd5b81019080803573ffffffffffffffffffffffffffffffffffffffff169060200190929190803563ffffffff169060200190929190505050610372565b604051808273ffffffffffffffffffffffffffffffffffffffff1673ffffffffffffffffffffffffffffffffffffffff16815260200191505060405180910390f35b34801561021757600080fd5b506102bf6004803603606081101561022e57600080fd5b81019080803573ffffffffffffffffffffffffffffffffffffffff169060200190929190803563ffffffff1690602001909291908035906020019064010000000081111561027b57600080fd5b82018360208201111561028d57600080fd5b803590602001918460018302840111640100000000831117156102af57600080fd5b9091929391929390505050610eaa565b005b610351600480360360608110156102d757600080fd5b81019080803560ff1690602001909291908035906020019064010000000081111561030157600080fd5b82018360208201111561031357600080fd5b8035906020019184600183028401116401000000008311171561033557600080fd5b9091929391929390803515159060200190929190505050611059565b005b60005481565b6228de8081565b60015481565b6251bd0081565b603c81565b6000808263ffffffff16141561053c5760d67f01000000000000000000000000000000000000000000000000000000000000000260947f0100000000000000000000000000000000000000000000000000000000000000028460807f01000000000000000000000000000000000000000000000000000000000000000260405160200180857effffffffffffffffffffffffffffffffffffffffffffffffffffffffffffff19167effffffffffffffffffffffffffffffffffffffffffffffffffffffffffffff19168152600101847effffffffffffffffffffffffffffffffffffffffffffffffffffffffffffff19167effffffffffffffffffffffffffffffffffffffffffffffffffffffffffffff191681526001018373ffffffffffffffffffffffffffffffffffffffff1673ffffffffffffffffffffffffffffffffffffffff166c01000000000000000000000000028152601401827effffffffffffffffffffffffffffffffffffffffffffffffffffffffffffff19167effffffffffffffffffffffffffffffffffffffffffffffffffffffffffffff1916815260010194505050505060405160208183030381529060405280519060200120600190049050610ea4565b607f8263ffffffff161115156106c75760d67f01000000000000000000000000000000000000000000000000000000000000000260947f010000000000000000000000000000000000000000000000000000000000000002848460405160200180857effffffffffffffffffffffffffffffffffffffffffffffffffffffffffffff19167effffffffffffffffffffffffffffffffffffffffffffffffffffffffffffff19168152600101847effffffffffffffffffffffffffffffffffffffffffffffffffffffffffffff19167effffffffffffffffffffffffffffffffffffffffffffffffffffffffffffff191681526001018373ffffffffffffffffffffffffffffffffffffffff1673ffffffffffffffffffffffffffffffffffffffff166c010000000000000000000000000281526014018260ff1660ff167f010000000000000000000000000000000000000000000000000000000000000002815260010194505050505060405160208183030381529060405280519060200120600190049050610ea4565b60ff8263ffffffff161115156108c15760d77f01000000000000000000000000000000000000000000000000000000000000000260947f0100000000000000000000000000000000000000000000000000000000000000028460817f0100000000000000000000000000000000000000000000000000000000000000028560405160200180867effffffffffffffffffffffffffffffffffffffffffffffffffffffffffffff19167effffffffffffffffffffffffffffffffffffffffffffffffffffffffffffff19168152600101857effffffffffffffffffffffffffffffffffffffffffffffffffffffffffffff19167effffffffffffffffffffffffffffffffffffffffffffffffffffffffffffff191681526001018473ffffffffffffffffffffffffffffffffffffffff1673ffffffffffffffffffffffffffffffffffffffff166c01000000000000000000000000028152601401837effffffffffffffffffffffffffffffffffffffffffffffffffffffffffffff19167effffffffffffffffffffffffffffffffffffffffffffffffffffffffffffff191681526001018260ff1660ff167f01000000000000000000000000000000000000000000000000000000000000000281526001019550505050505060405160208183030381529060405280519060200120600190049050610ea4565b61ffff8263ffffffff16111515610abd5760d87f01000000000000000000000000000000000000000000000000000000000000000260947f0100000000000000000000000000000000000000000000000000000000000000028460827f0100000000000000000000000000000000000000000000000000000000000000028560405160200180867effffffffffffffffffffffffffffffffffffffffffffffffffffffffffffff19167effffffffffffffffffffffffffffffffffffffffffffffffffffffffffffff19168152600101857effffffffffffffffffffffffffffffffffffffffffffffffffffffffffffff19167effffffffffffffffffffffffffffffffffffffffffffffffffffffffffffff191681526001018473ffffffffffffffffffffffffffffffffffffffff1673ffffffffffffffffffffffffffffffffffffffff166c01000000000000000000000000028152601401837effffffffffffffffffffffffffffffffffffffffffffffffffffffffffffff19167effffffffffffffffffffffffffffffffffffffffffffffffffffffffffffff191681526001018261ffff1661ffff167e010000000000000000000000000000000000000000000000000000000000000281526002019550505050505060405160208183030381529060405280519060200120600190049050610ea4565b62ffffff8263ffffffff16111515610cbb5760d97f01000000000000000000000000000000000000000000000000000000000000000260947f0100000000000000000000000000000000000000000000000000000000000000028460837f0100000000000000000000000000000000000000000000000000000000000000028560405160200180867effffffffffffffffffffffffffffffffffffffffffffffffffffffffffffff19167effffffffffffffffffffffffffffffffffffffffffffffffffffffffffffff19168152600101857effffffffffffffffffffffffffffffffffffffffffffffffffffffffffffff19167effffffffffffffffffffffffffffffffffffffffffffffffffffffffffffff191681526001018473ffffffffffffffffffffffffffffffffffffffff1673ffffffffffffffffffffffffffffffffffffffff166c01000000000000000000000000028152601401837effffffffffffffffffffffffffffffffffffffffffffffffffffffffffffff19167effffffffffffffffffffffffffffffffffffffffffffffffffffffffffffff191681526001018262ffffff1662ffffff167d0100000000000000000000000000000000000000000000000000000000000281526003019550505050505060405160208183030381529060405280519060200120600190049050610ea4565b60da7f01000000000000000000000000000000000000000000000000000000000000000260947f0100000000000000000000000000000000000000000000000000000000000000028460847f0100000000000000000000000000000000000000000000000000000000000000028560405160200180867effffffffffffffffffffffffffffffffffffffffffffffffffffffffffffff19167effffffffffffffffffffffffffffffffffffffffffffffffffffffffffffff19168152600101857effffffffffffffffffffffffffffffffffffffffffffffffffffffffffffff19167effffffffffffffffffffffffffffffffffffffffffffffffffffffffffffff191681526001018473ffffffffffffffffffffffffffffffffffffffff1673ffffffffffffffffffffffffffffffffffffffff166c01000000000000000000000000028152601401837effffffffffffffffffffffffffffffffffffffffffffffffffffffffffffff19167effffffffffffffffffffffffffffffffffffffffffffffffffffffffffffff191681526001018263ffffffff1663ffffffff167c010000000000000000000000000000000000000000000000000000000002815260040195505050505050604051602081830303815290604052805190602001206001900490505b92915050565b6000544210151515610ebb57600080fd5b6001544211151515610ecc57600080fd5b8333848173ffffffffffffffffffffffffffffffffffffffff168373ffffffffffffffffffffffffffffffffffffffff161415610f8a578673ffffffffffffffffffffffffffffffffffffffff167f0211c2ecb6e4a6502e0a459e097b88a8a9e09e651e50930a9a791cc031543b1586864260405180806020018381526020018281038252858582818152602001925080828437600081840152601f19601f82011690508083019250505094505050505060405180910390a2611050565b610f948282610372565b73ffffffffffffffffffffffffffffffffffffffff168373ffffffffffffffffffffffffffffffffffffffff16141515610fcd57600080fd5b8673ffffffffffffffffffffffffffffffffffffffff167f0211c2ecb6e4a6502e0a459e097b88a8a9e09e651e50930a9a791cc031543b1586864260405180806020018381526020018281038252858582818152602001925080828437600081840152601f19601f82011690508083019250505094505050505060405180910390a25b50505050505050565b600054421015151561106a57600080fd5b600154421115151561107b57600080fd5b60003490506000339050600061109087611208565b9050600083838361109f611297565b808373ffffffffffffffffffffffffffffffffffffffff1673ffffffffffffffffffffffffffffffffffffffff168152602001828152602001925050506040518091039082f0801580156110f7573d6000803e3d6000fd5b5090509050348173ffffffffffffffffffffffffffffffffffffffff163114151561111e57fe5b8273ffffffffffffffffffffffffffffffffffffffff167f8f81b4492eef21096ee0e1bc48a7200f9db32806ea6730354516e05e9856139985838b8b8b8b42604051808881526020018773ffffffffffffffffffffffffffffffffffffffff1673ffffffffffffffffffffffffffffffffffffffff1681526020018660028111156111a557fe5b60ff16815260200180602001841515151581526020018381526020018281038252868682818152602001925080828437600081840152601f19601f8201169050808301925050509850505050505050505060405180910390a25050505050505050565b600080600281111561121657fe5b82600281111561122257fe5b141561123557627a9b8042019050611292565b6001600281111561124257fe5b82600281111561124e57fe5b14156112615762f1428042019050611292565b60028081111561126d57fe5b82600281111561127957fe5b141561128d576301e1338042019050611292565b600080fd5b919050565b60405160c3806112a78339019056fe60806040526040516040806100c383398101806040526040811015602257600080fd5b81019080805190602001909291908051906020019092919050505081600055806001555050606e806100556000396000f3fe6080604052600154421160008114601b5760018114602057603f565b600080fd5b60008060008030316000545af160008114603857603d565b600080fd5b505b5000fea165627a7a723058206250f6e3ac10c1b80aa9ff4515759fb1b334b7c6449a2166fdf3e09074d2a52f0029a165627a7a72305820b45d946dfedb6a8fbdb2f2bca74bc5a5e992340754f412408c1a2d354c6c08100029",
  "source": "pragma solidity ^0.5.0;\n\nimport 'openzeppelin-solidity/contracts/token/ERC20/ERC20.sol';\n\ncontract Lock {\n    // address owner; slot #0\n    // address unlockTime; slot #1\n    constructor (address owner, uint256 unlockTime) public payable {\n        assembly {\n            sstore(0x00, owner)\n            sstore(0x01, unlockTime)\n        }\n    }\n    \n    /**\n     * @dev        Withdraw function once timestamp has passed unlock time\n     */\n    function () external payable { // payable so solidity doesn't add unnecessary logic\n        assembly {\n            switch gt(timestamp, sload(0x01))\n            case 0 { revert(0, 0) }\n            case 1 {\n                switch call(gas, sload(0x00), balance(address), 0, 0, 0, 0)\n                case 0 { revert(0, 0) }\n            }\n        }\n    }\n}\n\ncontract Lockdrop {\n    enum Term {\n        ThreeMo,\n        SixMo,\n        TwelveMo\n    }\n    // Time constants\n    // uint256 constant public LOCK_DROP_PERIOD = 1 days * 93; // 3 months\n    uint256 constant public LOCK_DROP_PERIOD = 1 minutes; // 3 months\n    uint256 constant public LOCK_DROP_FIRST_MONTH = 1 days * 31;\n    uint256 constant public LOCK_DROP_SECOND_MONTH = 1 days * 62;\n    uint256 public LOCK_START_TIME;\n    uint256 public LOCK_END_TIME;\n    // ETH locking events\n    event Locked(address indexed owner, uint256 eth, Lock lockAddr, Term term, bytes edgewareKey, bool isValidator, uint time);\n    event Signaled(address indexed contractAddr, bytes edgewareKey, uint time);\n    \n    constructor(uint startTime) public {\n        LOCK_START_TIME = startTime;\n        LOCK_END_TIME = startTime + LOCK_DROP_PERIOD;\n    }\n\n    /**\n     * @dev        Locks up the value sent to contract in a new Lock\n     * @param      term         The length of the lock up\n     * @param      edgewareKey  The bytes representation of the target edgeware key\n     * @param      isValidator  Indicates if sender wishes to be a validator\n     */\n    function lock(Term term, bytes calldata edgewareKey, bool isValidator)\n        external\n        payable\n        didStart\n        didNotEnd\n    {\n        uint256 eth = msg.value;\n        address owner = msg.sender;\n        uint256 unlockTime = unlockTimeForTerm(term);\n        // Create ETH lock contract\n        Lock lockAddr = (new Lock).value(eth)(owner, unlockTime);\n        // ensure lock contract has all ETH, or fail\n        assert(address(lockAddr).balance == msg.value);\n        emit Locked(owner, eth, lockAddr, term, edgewareKey, isValidator, now);\n    }\n\n    /**\n     * @dev        Signals a contract's (or address's) balance decided after lock period\n     * @param      contractAddr  The contract address from which to signal the balance of\n     * @param      nonce         The transaction nonce of the creator of the contract\n     * @param      edgewareKey   The bytes representation of the target edgeware key\n     */\n    function signal(address contractAddr, uint32 nonce, bytes calldata edgewareKey)\n        external\n        didStart\n        didNotEnd\n        didCreate(contractAddr, msg.sender, nonce)\n    {\n        emit Signaled(contractAddr, edgewareKey, now);\n    }\n\n    function unlockTimeForTerm(Term term) internal view returns (uint256) {\n        if (term == Term.ThreeMo) return now + 93 days;\n        if (term == Term.SixMo) return now + 183 days;\n        if (term == Term.TwelveMo) return now + 365 days;\n        \n        revert();\n    }\n\n    /**\n     * @dev        Ensures the lockdrop has started\n     */\n    modifier didStart() {\n        require(now >= LOCK_START_TIME);\n        _;\n    }\n\n    /**\n     * @dev        Ensures the lockdrop has not ended\n     */\n    modifier didNotEnd() {\n        require(now <= LOCK_END_TIME);\n        _;\n    }\n\n    /**\n     * @dev        Rebuilds the contract address from a normal address and transaction nonce\n     * @param      _origin  The non-contract address derived from a user's public key\n     * @param      _nonce   The transaction nonce from which to generate a contract address\n     */\n    function addressFrom(address _origin, uint32 _nonce) public pure returns (address) {\n        if(_nonce == 0x00)     return address(uint160(uint256(keccak256(abi.encodePacked(byte(0xd6), byte(0x94), _origin, byte(0x80))))));\n        if(_nonce <= 0x7f)     return address(uint160(uint256(keccak256(abi.encodePacked(byte(0xd6), byte(0x94), _origin, uint8(_nonce))))));\n        if(_nonce <= 0xff)     return address(uint160(uint256(keccak256(abi.encodePacked(byte(0xd7), byte(0x94), _origin, byte(0x81), uint8(_nonce))))));\n        if(_nonce <= 0xffff)   return address(uint160(uint256(keccak256(abi.encodePacked(byte(0xd8), byte(0x94), _origin, byte(0x82), uint16(_nonce))))));\n        if(_nonce <= 0xffffff) return address(uint160(uint256(keccak256(abi.encodePacked(byte(0xd9), byte(0x94), _origin, byte(0x83), uint24(_nonce))))));\n        return address(uint160(uint256(keccak256(abi.encodePacked(byte(0xda), byte(0x94), _origin, byte(0x84), uint32(_nonce)))))); // more than 2^32 nonces not realistic\n    }\n\n    /**\n     * @dev        Ensures the target address was created by a parent at some nonce\n     * @param      target  The target contract address (or trivially the parent)\n     * @param      parent  The creator of the alleged contract address\n     * @param      nonce   The creator's tx nonce at the time of the contract creation\n     */\n    modifier didCreate(address target, address parent, uint32 nonce) {\n        // Trivially let senders \"create\" themselves\n        if (target == parent) {\n            _;\n        } else {\n            require(target == addressFrom(parent, nonce));\n            _;\n        }\n    }\n}",
  "sourcePath": "/Users/drewstone/code/commonwealth/edgeware-lockdrop/contracts/Lockdrop.sol",
  "compiler": {
    "name": "solc",
    "version": "0.5.0+commit.1d4f565a.Emscripten.clang"
  },
  "schemaVersion": "3.0.1",
  "updatedAt": "2019-05-06T20:04:21.310Z",
  "devdoc": {
    "methods": {
      "addressFrom(address,uint32)": {
        "details": "Rebuilds the contract address from a normal address and transaction nonce",
        "params": {
          "_nonce": "The transaction nonce from which to generate a contract address",
          "_origin": "The non-contract address derived from a user's public key"
        }
      },
      "lock(uint8,bytes,bool)": {
        "details": "Locks up the value sent to contract in a new Lock",
        "params": {
          "edgewareKey": "The bytes representation of the target edgeware key",
          "isValidator": "Indicates if sender wishes to be a validator",
          "term": "The length of the lock up"
        }
      },
      "signal(address,uint32,bytes)": {
        "details": "Signals a contract's (or address's) balance decided after lock period",
        "params": {
          "contractAddr": "The contract address from which to signal the balance of",
          "edgewareKey": "The bytes representation of the target edgeware key",
          "nonce": "The transaction nonce of the creator of the contract"
        }
      }
    }
  },
  "userdoc": {
    "methods": {}
  }
}